:020000000120DD
:04000B00120080322D
:1000200075A892758902758AC0758CC0D2807800D7
:1000300074E0F2087480F2087440F2087400F20868
:0F0040007400F2087400F2087400F2087400F201
:0F004F001200931201393090133091163092192C
:0F005E00308C02015512013D3080F20155D28CD9
:10006D00D2900155C28CD2910155C28CD292D280C0
:10007D000200200DBD05067D0012009322120139EC
:10008D0022C28CC2802278007A007B007C007F0027
:10009D0011DC11E611EB90018FEB93FEEAF8E2FD16
:1000AD00EFB40207EE5D49F90200C850030200C823
:1000BD00B40308EE54FF49F90200C80BEBB408CEA7
:1000CD00EA2414F8ECF20AEAB408BF12013922EA64
:0F00DD007D07600214FD11F922EAFD311D22EAB0
:0F00EC007D00B407030200F604FD11F922EAF8C3
:1000FB007408C39BFCEDF8E2232303DCFDFE5401E3
:0F010B0060010FEE540260010FEE540460010F0B
:10011A007E0022EAF87408C39BFCE2232303DCFD79
:0F012A00FE540160010FEE540460010F7E0022AD
:1001390012013D227800E275B001F5A075A0000812
:10014900E275B002F5A075A00008E275B004F5A04B
:0F01590075A00008E275B008F5A075A00008E2D7
:0F01680075B010F5A075A00008E275B020F5A0E5
:0F01770075A00008E275B040F5A075A00008E281
:1001860075B080F5A075A0002280402010080402FA
:010196000167
:00000001FF
