:020000000150AD
:07000B00120075120087329C
:07001B0012007E75280F3270
:0E0050001201AB75A88A758911120075D28C49
:0F005E0012007ED28E120155120069E52860FC57
:10006D0075280012009380F4758A00758CFDD28C72
:0E007D0022758B68758DC5D28E22C000C0E042
:10008B00120155D0E0D000227A007B007C00790071
:10009B007F009001D711DF11EA11EF9001CFEB93A5
:1000AB00FEEAF8E2FDEFB40207EE5D49F90200CB80
:1000BB0050030200CBB40308EE54FF49F90200CB06
:1000CB000BEBB408CBEA2464F8E9F20AEAB408BAF9
:1000DB0012012422EA7807600214F81200FE22EAC9
:0F00EB00F8310722EA7800B407030200FA04F89C
:0F00FA001200FE22E2FE12010D12011822E2FE98
:1001090012010D22EB12011EEB240212011E22EB39
:100119000412011E22935E60010F2278647900E2C5
:0F012900F378657901E2F378667902E2F378679B
:100138007903E2F378687904E2F378697905E2F300
:0F014800786A7906E2F3786B7907E2F322F52AF9
:100157007800E275B001F5A075A00008E275B0025D
:10016700F5A075A00008E275B004F5A075A0000819
:10017700E275B008F5A075A00008E275B010F5A00B
:0F01870075A00008E275B020F5A075A00008E291
:0F01960075B040F5A075A00008E275B080F5A027
:0F01A50075A000E52A22780075B001E5805401AD
:0E01B40070FAE580540160FAE590F4F2F5A0CF
:1001C20075A000E5B023F5B008B808E2228040200F
:0F01D2001008040201018040201008040201807F
:00000001FF
