:020000000150AD
:07000B00120075120087329C
:07001B0012007E75280F3270
:1000500075A88A758911120075D28C12007ED28E15
:100060001201AF120159120069E52860FC752800E1
:0E00700012009380F4758A00758CFDD28C22EC
:10007E00758B68758DC5D28E22C000C0E0120159F5
:0F008E00D0E0D000227A007B007C0079007F0058
:10009D009001D911DF11EA11EF9001D1EB93FEEA36
:1000AD00F8E2FDEFB40207EE5D49F90200CB500313
:1000BD000200CBB40308EE54FF49F90200CB0BEB61
:0E00CD00B408CBEA2464F8E9F20AEAB408BAEF
:1000DB0012012822EA7D07600214FD1200FE22EABB
:0F00EB00FD310922EA7D00B407030200FA04FD8B
:1000FA001200FE22EDF8E2FE12011112011C22ED9D
:0E010A00F8E2FE12011122EB120122EB240298
:1001180012012222EB0412012222935E60010F22B7
:1001280078647900E2F378657901E2F37866790218
:10013800E2F378677903E2F378687904E2F378699F
:100148007905E2F3786A7906E2F3786B7907E2F3E6
:1001580022F52A7800E275B001F5A075A00008E242
:0F01680075B002F5A075A00008E275B004F5A00F
:0F01770075A00008E275B008F5A075A00008E2B9
:0F01860075B010F5A075A00008E275B020F5A0C7
:0F01950075A00008E275B040F5A075A00008E263
:1001A40075B080F5A075A000E52A2278007400F2ED
:1001B400087400F2087438F2087420F2087410F21B
:1001C400087400F2087400F2087400F222804020DF
:0F01D4001008040201018040201008040201807D
:00000001FF
