:020000000150AD
:07000B00120075120087329C
:07001B0012007E75280F3270
:1000500075A88A758911120075D28C12007ED28E15
:100060001201B6120160120069E52860FC752800D3
:0E00700012009380F4758A00758CFDD28C22EC
:10007E00758B68758DC5D28E22C000C0E0120160EE
:0F008E00D0E0D000227A007B007C0079007F0058
:10009D009001E011DF11EA11EF9001D8EB93FEEA28
:1000AD00F8E2FDEFB40207EE5D49F90200CB500313
:1000BD000200CBB40308EE54FF49F90200CB0BEB61
:0E00CD00B408CBEA2464F8E9F20AEAB408BAEF
:1000DB0012012F22EA7D07600214FD1200FE22EAB4
:0F00EB00FD310C22EA7D00B407030200FA04FD88
:0E00FA001200FE22EDF8E2FE12011712011CA8
:1001080012012222EDF8E2FE12011712012222EB5F
:1001180012012922EB0412012922EB2402120129DF
:0F01280022935E60010F2278647900E2F378651C
:100137007901E2F378667902E2F378677903E2F30B
:1001470078687904E2F378697905E2F3786A7906E1
:0E015700E2F3786B7907E2F322F52A7800E2F2
:0F01650075B001F5A075A00008E275B002F5A015
:0F01740075A00008E275B004F5A075A00008E2C0
:0F01830075B008F5A075A00008E275B010F5A0E2
:0F01920075A00008E275B020F5A075A00008E286
:0F01A10075B040F5A075A00008E275B080F5A01C
:1001B00075A000E52A2278007400F2087400F208A5
:1001C0007438F2087420F2087410F2087400F2080F
:1001D0007400F2087400F22280402010080402012A
:0A01E0000180402010080402018095
:00000001FF
