:020000000150AD
:07000B00120075120087329C
:07001B0012007E75280F3270
:0E00500012018375A88A758911120075D28C71
:0F005E0012007ED28E120159120069E52860FC53
:10006D0075280012009780F4758A00758CFDD28C6E
:10007D0022758B68758DC5D28E22C000C001C0E07F
:10008D00120159D0E0D001D000227A007B007C0013
:10009D0079007F009001AF11E311EE11F39001A7EC
:0F00AD00EB93FEEAF8E2FDEFB40207EE5D49F9CE
:1000BC000200CF50030200CFB40308EE54FF49F9FD
:1000CC000200CF0BEBB408CBEA2464F8E9F20AEA9D
:0E00DC00B408BA12012822EA7807600214F86C
:0F00EA0012010222EAF8310B22EA7800B4070370
:0E00F9000200FE04F812010222E2FE120111C2
:1001070012012022E2FE12011122EB935E60010F21
:10011700EB2402935E60010F22EB04935E60010FF4
:0F0127002278647900E2F378657901E2F3786673
:100136007902E2F378677903E2F378687904E2F307
:1001460078697905E2F3786A7906E2F3786B7907DC
:10015600E2F3227800790112017612017612017615
:1001660012017612017612017612017612017622BA
:0F017600E289B0F5A075A00008E923F92278000E
:0F01850075B001E580540170FAE580540160FA0D
:0F019400E590F4F2F5A075A000E5B023F5B008F2
:1001A300B808E222804020100804020101804020A8
:0601B300100804020180A7
:00000001FF
