:020000000120DD
:04000B0012009F320E
:1000200075A892758902758AC0758CC0D28CD280F1
:10003000780074E0F2087480F2087440F2087400EA
:10004000F2087400F2087400F2087400F2087400F8
:0F005000F2786474E0F2087480F2087440F208E9
:10005F007400F2087400F2087400F2087400F208D9
:10006F007400F2087400F21201763090103092137F
:0F007F00308C0201791201763080F20179D28C37
:10008E00D2900179C28CD292D280020020120176D7
:0F009E00220DBD05F87D001200A92278007A001E
:0F00AD007B007C0079007F009001D011F73101BA
:1000BC0031069001C8EB93FEEAF8E2FDEFB40207BB
:1000CC00EE5D49F90200E350030200E3B40308EECD
:1000DC0054FF49F90200E30BEBB408CBEA2464F8B3
:1000EC00E9F20AEAB408BA12014522EA7D07600275
:1000FC0014FD311422EAFD313022EA7D00B40703ED
:0F010C0002011104FD311422EDF8E2FEEB935EC7
:0F011B0060010FEB04935E60010FEB0404935E31
:10012A0060010F7E0022EDF8E2FEEB935E60010FA4
:10013A00EB0404935E60010F7E002278647900E28A
:0F014A00F378657901E2F378667902E2F378677A
:100159007903E2F378687904E2F378697905E2F3DF
:10016900786A7906E2F3786B7907E2F3227800E29C
:0F01790075B001F5A075A00008E275B002F5A001
:0F01880075A00008E275B004F5A075A00008E2AC
:0F01970075B008F5A075A00008E275B010F5A0CE
:0F01A60075A00008E275B020F5A075A00008E272
:0F01B50075B040F5A075A00008E275B080F5A008
:1001C40075A0002280402010080402010180402014
:0601D40010080402018086
:00000001FF
