:020000000120DD
:0C000B00758A00758CFDD28C12007F32CB
:1000200075A892758901758A00758CFDD28CD28075
:1000300078007400F208747CF2087484F208740486
:10004000F2087488F2087420F2087400F208740050
:0F005000F212015812008B80FB30901030921387
:0F005F00308C0201591201583080F20159D28CB5
:10006E00D2900159C28CD292D28002002012015835
:0F007E0022C000C0E0120158D0E0D0002278006C
:0F008D007A007B007C0079007F009001B611D9CA
:0F009C0011E311E89001AEEB93FEEAF8E2FDEFFD
:0F00AB00B40207EE5D49F90200C550030200C51B
:1000BA00B40308EE54FF49F90200C50BEBB408CBB0
:1000CA00EA2464F8E9F20AEAB408BA12012722EA31
:0F00DA007D07600214FD11F622EAFD311222EAC1
:1000E9007D00B407030200F304FD11F622EDF8E2E6
:1000F900FEEB935E60010FEB04935E60010FEB046E
:1001090004935E60010F7E0022EDF8E2FEEB935E40
:1001190060010FEB0404935E60010F7E0022786496
:100129007900E2F378657901E2F378667902E2F31E
:1001390078677903E2F378687904E2F378697905F5
:0F014900E2F3786A7906E2F3786B7907E2F32242
:0F015800F52A7800E275B001F5A075A00008E265
:0F01670075B002F5A075A00008E275B004F5A010
:0F01760075A00008E275B008F5A075A00008E2BA
:0F01850075B010F5A075A00008E275B020F5A0C8
:0F01940075A00008E275B040F5A075A00008E264
:1001A30075B080F5A075A000E52A228040201008D4
:0D01B30004020101804020100804020180B8
:00000001FF
